{
  "_format": "hh-sol-artifact-1",
  "contractName": "Vault",
  "sourceName": "contracts/Vault.sol",
  "abi": [
    {
      "inputs": [
        {
          "internalType": "address",
          "name": "",
          "type": "address"
        }
      ],
      "name": "vaults",
      "outputs": [
        {
          "internalType": "uint256",
          "name": "",
          "type": "uint256"
        }
      ],
      "stateMutability": "view",
      "type": "function"
    },
    {
      "inputs": [],
      "name": "viewBalance",
      "outputs": [
        {
          "internalType": "uint256",
          "name": "",
          "type": "uint256"
        }
      ],
      "stateMutability": "view",
      "type": "function"
    },
    {
      "inputs": [
        {
          "internalType": "uint256",
          "name": "_amount",
          "type": "uint256"
        }
      ],
      "name": "withdraw",
      "outputs": [],
      "stateMutability": "nonpayable",
      "type": "function"
    },
    {
      "stateMutability": "payable",
      "type": "receive"
    }
  ],
  "bytecode": "0x608060405234801561001057600080fd5b50610568806100206000396000f3fe6080604052600436106100385760003560e01c80632e1a7d4d146100995780633ff1e05b146100c2578063a622ee7c146100ed57610094565b3661009457346000803373ffffffffffffffffffffffffffffffffffffffff1673ffffffffffffffffffffffffffffffffffffffff168152602001908152602001600020600082825461008b919061038c565b92505081905550005b600080fd5b3480156100a557600080fd5b506100c060048036038101906100bb91906102e5565b61012a565b005b3480156100ce57600080fd5b506100d7610272565b6040516100e49190610360565b60405180910390f35b3480156100f957600080fd5b50610114600480360381019061010f91906102bc565b61027a565b6040516101219190610360565b60405180910390f35b60008060003373ffffffffffffffffffffffffffffffffffffffff1673ffffffffffffffffffffffffffffffffffffffff168152602001908152602001600020549050808211156101b0576040517f08c379a00000000000000000000000000000000000000000000000000000000081526004016101a790610340565b60405180910390fd5b3373ffffffffffffffffffffffffffffffffffffffff166108fc670de0b6b3a7640000846101de91906103e2565b9081150290604051600060405180830381858888f19350505050158015610209573d6000803e3d6000fd5b50670de0b6b3a76400008261021e91906103e2565b81610229919061043c565b9050806000803373ffffffffffffffffffffffffffffffffffffffff1673ffffffffffffffffffffffffffffffffffffffff168152602001908152602001600020819055505050565b600047905090565b60006020528060005260406000206000915090505481565b6000813590506102a181610504565b92915050565b6000813590506102b68161051b565b92915050565b6000602082840312156102ce57600080fd5b60006102dc84828501610292565b91505092915050565b6000602082840312156102f757600080fd5b6000610305848285016102a7565b91505092915050565b600061031b60138361037b565b9150610326826104db565b602082019050919050565b61033a816104a2565b82525050565b600060208201905081810360008301526103598161030e565b9050919050565b60006020820190506103756000830184610331565b92915050565b600082825260208201905092915050565b6000610397826104a2565b91506103a2836104a2565b9250827fffffffffffffffffffffffffffffffffffffffffffffffffffffffffffffffff038211156103d7576103d66104ac565b5b828201905092915050565b60006103ed826104a2565b91506103f8836104a2565b9250817fffffffffffffffffffffffffffffffffffffffffffffffffffffffffffffffff0483118215151615610431576104306104ac565b5b828202905092915050565b6000610447826104a2565b9150610452836104a2565b925082821015610465576104646104ac565b5b828203905092915050565b600061047b82610482565b9050919050565b600073ffffffffffffffffffffffffffffffffffffffff82169050919050565b6000819050919050565b7f4e487b7100000000000000000000000000000000000000000000000000000000600052601160045260246000fd5b7f6e6f7420656e6f75676820657468657265756d00000000000000000000000000600082015250565b61050d81610470565b811461051857600080fd5b50565b610524816104a2565b811461052f57600080fd5b5056fea26469706673582212206db3d04aa02262d8547d6efa70a72f60b20a2bab7778029e83ec39529d80e74a64736f6c63430008040033",
  "linkReferences": {},
  "deployedLinkReferences": {}
}